{
  "contractName": "JobBounty",
  "abi": [
    {
      "constant": true,
      "inputs": [
        {
          "name": "",
          "type": "uint256"
        }
      ],
      "name": "bountyDetails",
      "outputs": [
        {
          "name": "issuer",
          "type": "address"
        },
        {
          "name": "deadline",
          "type": "uint256"
        },
        {
          "name": "description",
          "type": "string"
        },
        {
          "name": "status",
          "type": "uint8"
        },
        {
          "name": "amount",
          "type": "uint256"
        }
      ],
      "payable": false,
      "stateMutability": "view",
      "type": "function"
    },
    {
      "anonymous": false,
      "inputs": [
        {
          "indexed": false,
          "name": "bounty_id",
          "type": "uint256"
        },
        {
          "indexed": false,
          "name": "issuer",
          "type": "address"
        },
        {
          "indexed": false,
          "name": "amount",
          "type": "uint256"
        },
        {
          "indexed": false,
          "name": "description",
          "type": "string"
        }
      ],
      "name": "BountyIssued",
      "type": "event"
    },
    {
      "anonymous": false,
      "inputs": [
        {
          "indexed": false,
          "name": "bounty_id",
          "type": "uint256"
        },
        {
          "indexed": false,
          "name": "fulfiller",
          "type": "address"
        },
        {
          "indexed": false,
          "name": "fulfillment_id",
          "type": "uint256"
        },
        {
          "indexed": false,
          "name": "description",
          "type": "string"
        }
      ],
      "name": "BountyFulfilled",
      "type": "event"
    },
    {
      "anonymous": false,
      "inputs": [
        {
          "indexed": false,
          "name": "bounty_id",
          "type": "uint256"
        },
        {
          "indexed": false,
          "name": "issuer",
          "type": "address"
        },
        {
          "indexed": false,
          "name": "fulfiller",
          "type": "address"
        },
        {
          "indexed": true,
          "name": "fulfillment_id",
          "type": "uint256"
        },
        {
          "indexed": false,
          "name": "amount",
          "type": "uint256"
        }
      ],
      "name": "FulfillmentAccepted",
      "type": "event"
    },
    {
      "anonymous": false,
      "inputs": [
        {
          "indexed": true,
          "name": "bounty_id",
          "type": "uint256"
        },
        {
          "indexed": true,
          "name": "issuer",
          "type": "address"
        },
        {
          "indexed": false,
          "name": "amount",
          "type": "uint256"
        }
      ],
      "name": "BountyCancelled",
      "type": "event"
    },
    {
      "constant": false,
      "inputs": [],
      "name": "initialize",
      "outputs": [],
      "payable": false,
      "stateMutability": "nonpayable",
      "type": "function"
    },
    {
      "constant": false,
      "inputs": [
        {
          "name": "_description",
          "type": "string"
        },
        {
          "name": "_deadline",
          "type": "uint64"
        }
      ],
      "name": "issueBounty",
      "outputs": [
        {
          "name": "",
          "type": "uint256"
        }
      ],
      "payable": true,
      "stateMutability": "payable",
      "type": "function"
    },
    {
      "constant": false,
      "inputs": [
        {
          "name": "_bountyId",
          "type": "uint256"
        },
        {
          "name": "_description",
          "type": "string"
        }
      ],
      "name": "fulfillBounty",
      "outputs": [],
      "payable": false,
      "stateMutability": "nonpayable",
      "type": "function"
    },
    {
      "constant": false,
      "inputs": [
        {
          "name": "_bountyId",
          "type": "uint256"
        },
        {
          "name": "_fulfillmentId",
          "type": "uint256"
        }
      ],
      "name": "acceptFulfillment",
      "outputs": [],
      "payable": false,
      "stateMutability": "nonpayable",
      "type": "function"
    },
    {
      "constant": false,
      "inputs": [
        {
          "name": "_bountyId",
          "type": "uint256"
        }
      ],
      "name": "cancelBounty",
      "outputs": [],
      "payable": false,
      "stateMutability": "nonpayable",
      "type": "function"
    }
  ],
  "bytecode": "0x608060405234801561001057600080fd5b5061185f806100206000396000f3fe608060405260043610610078576000357c0100000000000000000000000000000000000000000000000000000000900463ffffffff1680631e688c141461007d5780638129fc1c1461014f578063a372625314610166578063b74d20b514610249578063d958349714610353578063e5e5dff114610398575b600080fd5b34801561008957600080fd5b5061014d600480360360408110156100a057600080fd5b8101908080359060200190929190803590602001906401000000008111156100c757600080fd5b8201836020820111156100d957600080fd5b803590602001918460018302840111640100000000831117156100fb57600080fd5b91908080601f016020809104026020016040519081016040528093929190818152602001838380828437600081840152601f19601f8201169050808301925050505050505091929192905050506103d3565b005b34801561015b57600080fd5b50610164610886565b005b6102336004803603604081101561017c57600080fd5b810190808035906020019064010000000081111561019957600080fd5b8201836020820111156101ab57600080fd5b803590602001918460018302840111640100000000831117156101cd57600080fd5b91908080601f016020809104026020016040519081016040528093929190818152602001838380828437600081840152601f19601f820116905080830192505050505050509192919290803567ffffffffffffffff1690602001909291905050506109ca565b6040518082815260200191505060405180910390f35b34801561025557600080fd5b506102826004803603602081101561026c57600080fd5b8101908080359060200190929190505050610ce4565b604051808673ffffffffffffffffffffffffffffffffffffffff1673ffffffffffffffffffffffffffffffffffffffff168152602001858152602001806020018460028111156102ce57fe5b60ff168152602001838152602001828103825285818151815260200191508051906020019080838360005b838110156103145780820151818401526020810190506102f9565b50505050905090810190601f1680156103415780820380516001836020036101000a031916815260200191505b50965050505050505060405180910390f35b34801561035f57600080fd5b506103966004803603604081101561037657600080fd5b810190808035906020019092919080359060200190929190505050610dee565b005b3480156103a457600080fd5b506103d1600480360360208110156103bb57600080fd5b8101908080359060200190929190505050611400565b005b8160338054905081101515610450576040517f08c379a00000000000000000000000000000000000000000000000000000000081526004018080602001828103825260158152602001807f426f756e747920616c726561647920657869737473000000000000000000000081525060200191505060405180910390fd5b8260338181548110151561046057fe5b906000526020600020906005020160000160009054906101000a900473ffffffffffffffffffffffffffffffffffffffff1673ffffffffffffffffffffffffffffffffffffffff163373ffffffffffffffffffffffffffffffffffffffff1614151515610535576040517f08c379a00000000000000000000000000000000000000000000000000000000081526004018080602001828103825260138152602001807f596f7572206e6f7420746865206973737565720000000000000000000000000081525060200191505060405180910390fd5b83600080600281111561054457fe5b60338381548110151561055357fe5b906000526020600020906005020160030160009054906101000a900460ff16600281111561057d57fe5b1415156105f2576040517f08c379a00000000000000000000000000000000000000000000000000000000081526004018080602001828103825260188152602001807f54686572652073686f756c64206265206120737461747573000000000000000081525060200191505060405180910390fd5b8560338181548110151561060257fe5b9060005260206000209060050201600101544210151561068a576040517f08c379a00000000000000000000000000000000000000000000000000000000081526004018080602001828103825260198152602001807f53686f756c64206265206265666f726520646561646c696e650000000000000081525060200191505060405180910390fd5b603460008881526020019081526020016000206060604051908101604052806000151581526020013373ffffffffffffffffffffffffffffffffffffffff168152602001888152509080600181540180825580915050906001820390600052602060002090600202016000909192909190915060008201518160000160006101000a81548160ff02191690831515021790555060208201518160000160016101000a81548173ffffffffffffffffffffffffffffffffffffffff021916908373ffffffffffffffffffffffffffffffffffffffff160217905550604082015181600101908051906020019061078092919061178e565b505050507fc4f0fe8da4c31907c5e6741ec9f6c2761aef2c6f0aa407d1f22b1420932631b387336001603460008c8152602001908152602001600020805490500389604051808581526020018473ffffffffffffffffffffffffffffffffffffffff1673ffffffffffffffffffffffffffffffffffffffff16815260200183815260200180602001828103825283818151815260200191508051906020019080838360005b83811015610840578082015181840152602081019050610825565b50505050905090810190601f16801561086d5780820380516001836020036101000a031916815260200191505b509550505050505060405180910390a150505050505050565b600060019054906101000a900460ff16806108a557506108a461177d565b5b806108bc57506000809054906101000a900460ff16155b1515610956576040517f08c379a000000000000000000000000000000000000000000000000000000000815260040180806020018281038252602e8152602001807f436f6e747261637420696e7374616e63652068617320616c726561647920626581526020017f656e20696e697469616c697a656400000000000000000000000000000000000081525060400191505060405180910390fd5b60008060019054906101000a900460ff1615905080156109a6576001600060016101000a81548160ff02191690831515021790555060016000806101000a81548160ff0219169083151502179055505b80156109c75760008060016101000a81548160ff0219169083151502179055505b50565b60008034111515610a43576040517f08c379a00000000000000000000000000000000000000000000000000000000081526004018080602001828103825260178152602001807f54686572652073686f756c6420626520612076616c756500000000000000000081525060200191505060405180910390fd5b8167ffffffffffffffff164281111515610ac5576040517f08c379a00000000000000000000000000000000000000000000000000000000081526004018080602001828103825260208152602001807f446561646c696e652073686f756c6420626520696e207468652066757475726581525060200191505060405180910390fd5b603360a0604051908101604052803373ffffffffffffffffffffffffffffffffffffffff1681526020018567ffffffffffffffff16815260200186815260200160006002811115610b1257fe5b8152602001348152509080600181540180825580915050906001820390600052602060002090600502016000909192909190915060008201518160000160006101000a81548173ffffffffffffffffffffffffffffffffffffffff021916908373ffffffffffffffffffffffffffffffffffffffff160217905550602082015181600101556040820151816002019080519060200190610bb392919061178e565b5060608201518160030160006101000a81548160ff02191690836002811115610bd857fe5b0217905550608082015181600401555050507fba1576d8891bfe57a45ac4b986d4a4aa912c62f44771d4eec8ab2ce06e3be5b7600160338054905003333487604051808581526020018473ffffffffffffffffffffffffffffffffffffffff1673ffffffffffffffffffffffffffffffffffffffff16815260200183815260200180602001828103825283818151815260200191508051906020019080838360005b83811015610c95578082015181840152602081019050610c7a565b50505050905090810190601f168015610cc25780820380516001836020036101000a031916815260200191505b509550505050505060405180910390a160016033805490500391505092915050565b603381815481101515610cf357fe5b90600052602060002090600502016000915090508060000160009054906101000a900473ffffffffffffffffffffffffffffffffffffffff1690806001015490806002018054600181600116156101000203166002900480601f016020809104026020016040519081016040528092919081815260200182805460018160011615610100020316600290048015610dcb5780601f10610da057610100808354040283529160200191610dcb565b820191906000526020600020905b815481529060010190602001808311610dae57829003601f168201915b5050505050908060030160009054906101000a900460ff16908060040154905085565b8160338054905081101515610e6b576040517f08c379a00000000000000000000000000000000000000000000000000000000081526004018080602001828103825260158152602001807f426f756e747920616c726561647920657869737473000000000000000000000081525060200191505060405180910390fd5b8282603460008381526020019081526020016000208054905081101515610efa576040517f08c379a000000000000000000000000000000000000000000000000000000000815260040180806020018281038252601e8152602001807f5468652066756c66696c6c6d656e7420616c726561647920657869737473000081525060200191505060405180910390fd5b84603381815481101515610f0a57fe5b906000526020600020906005020160000160009054906101000a900473ffffffffffffffffffffffffffffffffffffffff1673ffffffffffffffffffffffffffffffffffffffff163373ffffffffffffffffffffffffffffffffffffffff16141515610fde576040517f08c379a000000000000000000000000000000000000000000000000000000000815260040180806020018281038252601b8152602001807f596f752063616e6e6f742063616c6c2074686973206d6574686f64000000000081525060200191505060405180910390fd5b856000806002811115610fed57fe5b603383815481101515610ffc57fe5b906000526020600020906005020160030160009054906101000a900460ff16600281111561102657fe5b14151561109b576040517f08c379a00000000000000000000000000000000000000000000000000000000081526004018080602001828103825260188152602001807f54686572652073686f756c64206265206120737461747573000000000000000081525060200191505060405180910390fd5b87876000151560346000848152602001908152602001600020828154811015156110c157fe5b906000526020600020906002020160000160009054906101000a900460ff161515141515611157576040517f08c379a00000000000000000000000000000000000000000000000000000000081526004018080602001828103825260188152602001807f46756c66696c6c6d656e74206e6f74206163636570746564000000000000000081525060200191505060405180910390fd5b6001603460008c81526020019081526020016000208a81548110151561117957fe5b906000526020600020906002020160000160006101000a81548160ff021916908315150217905550600160338b8154811015156111b257fe5b906000526020600020906005020160030160006101000a81548160ff021916908360028111156111de57fe5b0217905550603460008b81526020019081526020016000208981548110151561120357fe5b906000526020600020906002020160000160019054906101000a900473ffffffffffffffffffffffffffffffffffffffff1673ffffffffffffffffffffffffffffffffffffffff166108fc60338c81548110151561125d57fe5b9060005260206000209060050201600401549081150290604051600060405180830381858888f1935050505015801561129a573d6000803e3d6000fd5b50887f85d45a4e923ea9b336558bcd434d3f474644affd5df115bba14b63e75425bde48b60338d8154811015156112cd57fe5b906000526020600020906005020160000160009054906101000a900473ffffffffffffffffffffffffffffffffffffffff16603460008f81526020019081526020016000208d81548110151561131f57fe5b906000526020600020906002020160000160019054906101000a900473ffffffffffffffffffffffffffffffffffffffff1660338f81548110151561136057fe5b906000526020600020906005020160040154604051808581526020018473ffffffffffffffffffffffffffffffffffffffff1673ffffffffffffffffffffffffffffffffffffffff1681526020018373ffffffffffffffffffffffffffffffffffffffff1673ffffffffffffffffffffffffffffffffffffffff16815260200182815260200194505050505060405180910390a250505050505050505050565b806033805490508110151561147d576040517f08c379a00000000000000000000000000000000000000000000000000000000081526004018080602001828103825260158152602001807f426f756e747920616c726561647920657869737473000000000000000000000081525060200191505060405180910390fd5b8160338181548110151561148d57fe5b906000526020600020906005020160000160009054906101000a900473ffffffffffffffffffffffffffffffffffffffff1673ffffffffffffffffffffffffffffffffffffffff163373ffffffffffffffffffffffffffffffffffffffff16141515611561576040517f08c379a000000000000000000000000000000000000000000000000000000000815260040180806020018281038252601b8152602001807f596f752063616e6e6f742063616c6c2074686973206d6574686f64000000000081525060200191505060405180910390fd5b82600080600281111561157057fe5b60338381548110151561157f57fe5b906000526020600020906005020160030160009054906101000a900460ff1660028111156115a957fe5b14151561161e576040517f08c379a00000000000000000000000000000000000000000000000000000000081526004018080602001828103825260188152602001807f54686572652073686f756c64206265206120737461747573000000000000000081525060200191505060405180910390fd5b600260338681548110151561162f57fe5b906000526020600020906005020160030160006101000a81548160ff0219169083600281111561165b57fe5b021790555060338581548110151561166f57fe5b906000526020600020906005020160000160009054906101000a900473ffffffffffffffffffffffffffffffffffffffff1673ffffffffffffffffffffffffffffffffffffffff166108fc6033878154811015156116c957fe5b9060005260206000209060050201600401549081150290604051600060405180830381858888f19350505050158015611706573d6000803e3d6000fd5b503373ffffffffffffffffffffffffffffffffffffffff16857fb9670bf4f2273686f771c9ab65309436df5ed75afa63eefec8b67640d8bcf72c60338881548110151561174f57fe5b9060005260206000209060050201600401546040518082815260200191505060405180910390a35050505050565b600080303b90506000811491505090565b828054600181600116156101000203166002900490600052602060002090601f016020900481019282601f106117cf57805160ff19168380011785556117fd565b828001600101855582156117fd579182015b828111156117fc5782518255916020019190600101906117e1565b5b50905061180a919061180e565b5090565b61183091905b8082111561182c576000816000905550600101611814565b5090565b9056fea165627a7a72305820d129a14f002ed05d4e154e6f1c07205e8707404b8ef690403c67dbab4ba9ccfb0029",
  "source": "pragma solidity ^0.5.0;\n\nimport \"zos-lib/contracts/Initializable.sol\";\n\n/**\n* @title JobBounty\n* @author Otim Fredrick- <fredrickot@gmail.com>\n* @dev A smart contract which allows someone [a poster] to post work in ETH linked with description\n* And anyone [submitter] can submit a solution as evidence of fulfillment to the work.\n*/\ncontract JobBounty is Initializable {\n    \n    /*\n    * Enum\n    */\n    enum BountyStatus { CREATED, ACCEPTED, CANCELLED }\n    /*\n    * Structs\n    */\n    struct BountyDetail {\n        address payable issuer;\n        uint deadline;\n        string description;\n        BountyStatus status;\n        uint amount;         // in wei\n    }\n    struct Success {\n      bool accepted;\n      address payable submitter;\n      string data;\n    }\n    /*\n    * Storage\n    */\n    BountyDetail[] public bountyDetails;\n    mapping(uint => Success[]) successes;\n    \n    /**\n    * @dev Contructor\n    */\n    function initialize() public initializer {\n    }\n    \n    /**\n    * @dev issueBounty(): instantiates a new bountyDetail\n    * @param _deadline the unix timestamp after which fulfillments will no longer be accepted\n    * @param _description the description of the bountyDetail\n    */\n    function issueBounty(string memory _description, uint64 _deadline)\n        public payable hasValue() validateDeadline(_deadline) returns(uint)\n    {\n        bountyDetails.push(BountyDetail(msg.sender, _deadline, _description, BountyStatus.CREATED, msg.value));\n        emit BountyIssued(bountyDetails.length - 1, msg.sender, msg.value, _description);\n        return (bountyDetails.length - 1);\n    }\n    \n    /**\n    * @dev fulfillBounty(): submit a fulfillment for the given bounty\n    * @param _bountyId the index of the bounty to be fufilled\n    * @param _description the ipfs hash which contains evidence of the fufillment\n    */\n    function fulfillBounty(uint _bountyId, string memory _description)\n        public\n        bountyExists(_bountyId)\n        notIssuer(_bountyId)\n        hasStatus(_bountyId, BountyStatus.CREATED)\n        isBeforeDeadline(_bountyId)\n    {\n        successes[_bountyId].push(Success(false, msg.sender, _description));\n        emit BountyFulfilled(_bountyId, msg.sender, (successes[_bountyId].length - 1), _description);\n    }\n    \n    /**\n    * @dev acceptFulfillment(): accept a given fulfillment\n    * @param _bountyId the index of the bounty\n    * @param _fulfillmentId the index of the fulfillment being accepted\n    */\n    function acceptFulfillment(uint _bountyId, uint _fulfillmentId)\n      public\n      bountyExists(_bountyId)\n      fulfillmentExists(_bountyId, _fulfillmentId)\n      onlyIssuer(_bountyId)\n      hasStatus(_bountyId, BountyStatus.CREATED)\n      fulfillmentNotYetAccepted(_bountyId, _fulfillmentId)\n    {\n         successes[_bountyId][_fulfillmentId].accepted = true;\n        bountyDetails[_bountyId].status = BountyStatus.ACCEPTED;\n        successes[_bountyId][_fulfillmentId].submitter.transfer(bountyDetails[_bountyId].amount);\n        emit FulfillmentAccepted(\n          _bountyId, bountyDetails[_bountyId].issuer,\n          successes[_bountyId][_fulfillmentId].submitter,\n          _fulfillmentId, bountyDetails[_bountyId].amount\n        );\n    }\n    \n    /** @dev cancelBounty(): cancels the bounty and send the funds back to the issuer\n    * @param _bountyId the index of the bounty\n    */\n    function cancelBounty(uint _bountyId)\n      public\n      bountyExists(_bountyId)\n      onlyIssuer(_bountyId)\n      hasStatus(_bountyId, BountyStatus.CREATED)\n    {\n      bountyDetails[_bountyId].status = BountyStatus.CANCELLED;\n      bountyDetails[_bountyId].issuer.transfer(bountyDetails[_bountyId].amount);\n      emit BountyCancelled(_bountyId, msg.sender, bountyDetails[_bountyId].amount);\n    }\n    \n    /**\n    * Modifiers\n    */\n    modifier validateDeadline(uint _newDeadline) {\n        require(_newDeadline > now, \"Deadline should be in the future\");\n        _;\n    }\n    modifier hasValue() {\n        require(msg.value > 0, \"There should be a value\");\n        _;\n    }\n    modifier bountyExists(uint _bountyId){\n        require(_bountyId < bountyDetails.length, \"Bounty already exists\");\n        _;\n    }\n    modifier onlyIssuer(uint _bountyId) {\n      require(msg.sender == bountyDetails[_bountyId].issuer, \"You cannot call this method\");\n      _;\n    }\n    modifier notIssuer(uint _bountyId){\n        require(msg.sender != bountyDetails[_bountyId].issuer, \"Your not the issuer\");\n        _;\n    }\n    modifier hasStatus(uint _bountyId, BountyStatus _exactStatus) {\n        require(bountyDetails[_bountyId].status == _exactStatus, \"There should be a status\");\n        _;\n    }\n    modifier isBeforeDeadline(uint _bountyId) {\n        require(now < bountyDetails[_bountyId].deadline, \"Should be before deadline\");\n        _;\n    }\n    modifier fulfillmentNotYetAccepted(uint _bountyId, uint _fulfillmentId) {\n        require(successes[_bountyId][_fulfillmentId].accepted == false, \"Fulfillment not accepted\");\n        _;\n    }\n    modifier fulfillmentExists(uint _bountyId, uint _fulfillmentId){\n        require(_fulfillmentId < successes[_bountyId].length, \"The fulfillment already exists\");\n        _;\n    }\n    \n    /**\n    * Events\n    */\n    event BountyIssued(uint bounty_id, address issuer, uint amount, string description);\n    event BountyFulfilled(uint bounty_id, address fulfiller, uint fulfillment_id, string description);\n    event FulfillmentAccepted(uint bounty_id, address issuer, address fulfiller, uint indexed fulfillment_id, uint amount);\n    event BountyCancelled(uint indexed bounty_id, address indexed issuer, uint amount);\n}",
  "sourcePath": "/Users/fredrickotim/Documents/programming/ethereum/JobBounty/contracts/JobBounty.sol",
  "compiler": {
    "name": "solc",
    "version": "0.5.0+commit.1d4f565a.Emscripten.clang"
  },
  "schemaVersion": "3.0.5",
  "updatedAt": "2019-06-18T06:52:16.505Z",
  "devdoc": {
    "author": "Otim Fredrick- <fredrickot@gmail.com>",
    "details": "A smart contract which allows someone [a poster] to post work in ETH linked with description And anyone [submitter] can submit a solution as evidence of fulfillment to the work.",
    "methods": {
      "acceptFulfillment(uint256,uint256)": {
        "details": "acceptFulfillment(): accept a given fulfillment",
        "params": {
          "_bountyId": "the index of the bounty",
          "_fulfillmentId": "the index of the fulfillment being accepted"
        }
      },
      "cancelBounty(uint256)": {
        "details": "cancelBounty(): cancels the bounty and send the funds back to the issuer",
        "params": {
          "_bountyId": "the index of the bounty"
        }
      },
      "fulfillBounty(uint256,string)": {
        "details": "fulfillBounty(): submit a fulfillment for the given bounty",
        "params": {
          "_bountyId": "the index of the bounty to be fufilled",
          "_description": "the ipfs hash which contains evidence of the fufillment"
        }
      },
      "initialize()": {
        "details": "Contructor"
      },
      "issueBounty(string,uint64)": {
        "details": "issueBounty(): instantiates a new bountyDetail",
        "params": {
          "_deadline": "the unix timestamp after which fulfillments will no longer be accepted",
          "_description": "the description of the bountyDetail"
        }
      }
    },
    "title": "JobBounty"
  },
  "userdoc": {
    "methods": {}
  }
}