{
  "contractName": "JobBounty",
  "abi": [
    {
      "constant": true,
      "inputs": [
        {
          "name": "",
          "type": "uint256"
        }
      ],
      "name": "bountyDetails",
      "outputs": [
        {
          "name": "issuer",
          "type": "address"
        },
        {
          "name": "deadline",
          "type": "uint256"
        },
        {
          "name": "description",
          "type": "string"
        },
        {
          "name": "status",
          "type": "uint8"
        },
        {
          "name": "amount",
          "type": "uint256"
        }
      ],
      "payable": false,
      "stateMutability": "view",
      "type": "function",
      "signature": "0xb74d20b5"
    },
    {
      "anonymous": false,
      "inputs": [
        {
          "indexed": false,
          "name": "bounty_id",
          "type": "uint256"
        },
        {
          "indexed": false,
          "name": "issuer",
          "type": "address"
        },
        {
          "indexed": false,
          "name": "amount",
          "type": "uint256"
        },
        {
          "indexed": false,
          "name": "description",
          "type": "string"
        }
      ],
      "name": "BountyIssued",
      "type": "event",
      "signature": "0xba1576d8891bfe57a45ac4b986d4a4aa912c62f44771d4eec8ab2ce06e3be5b7"
    },
    {
      "anonymous": false,
      "inputs": [
        {
          "indexed": false,
          "name": "bounty_id",
          "type": "uint256"
        },
        {
          "indexed": false,
          "name": "fulfiller",
          "type": "address"
        },
        {
          "indexed": false,
          "name": "fulfillment_id",
          "type": "uint256"
        },
        {
          "indexed": false,
          "name": "description",
          "type": "string"
        }
      ],
      "name": "BountyFulfilled",
      "type": "event",
      "signature": "0xc4f0fe8da4c31907c5e6741ec9f6c2761aef2c6f0aa407d1f22b1420932631b3"
    },
    {
      "anonymous": false,
      "inputs": [
        {
          "indexed": false,
          "name": "bounty_id",
          "type": "uint256"
        },
        {
          "indexed": false,
          "name": "issuer",
          "type": "address"
        },
        {
          "indexed": false,
          "name": "fulfiller",
          "type": "address"
        },
        {
          "indexed": true,
          "name": "fulfillment_id",
          "type": "uint256"
        },
        {
          "indexed": false,
          "name": "amount",
          "type": "uint256"
        }
      ],
      "name": "FulfillmentAccepted",
      "type": "event",
      "signature": "0x85d45a4e923ea9b336558bcd434d3f474644affd5df115bba14b63e75425bde4"
    },
    {
      "anonymous": false,
      "inputs": [
        {
          "indexed": true,
          "name": "bounty_id",
          "type": "uint256"
        },
        {
          "indexed": true,
          "name": "issuer",
          "type": "address"
        },
        {
          "indexed": false,
          "name": "amount",
          "type": "uint256"
        }
      ],
      "name": "BountyCancelled",
      "type": "event",
      "signature": "0xb9670bf4f2273686f771c9ab65309436df5ed75afa63eefec8b67640d8bcf72c"
    },
    {
      "constant": false,
      "inputs": [],
      "name": "initialize",
      "outputs": [],
      "payable": false,
      "stateMutability": "nonpayable",
      "type": "function",
      "signature": "0x8129fc1c"
    },
    {
      "constant": false,
      "inputs": [],
      "name": "toggleContractActive",
      "outputs": [],
      "payable": false,
      "stateMutability": "nonpayable",
      "type": "function",
      "signature": "0x1385d24c"
    },
    {
      "constant": false,
      "inputs": [
        {
          "name": "_description",
          "type": "string"
        },
        {
          "name": "_deadline",
          "type": "uint64"
        }
      ],
      "name": "issueBounty",
      "outputs": [
        {
          "name": "",
          "type": "uint256"
        }
      ],
      "payable": true,
      "stateMutability": "payable",
      "type": "function",
      "signature": "0xa3726253"
    },
    {
      "constant": false,
      "inputs": [
        {
          "name": "_bountyId",
          "type": "uint256"
        },
        {
          "name": "_description",
          "type": "string"
        }
      ],
      "name": "fulfillBounty",
      "outputs": [],
      "payable": false,
      "stateMutability": "nonpayable",
      "type": "function",
      "signature": "0x1e688c14"
    },
    {
      "constant": false,
      "inputs": [
        {
          "name": "_bountyId",
          "type": "uint256"
        },
        {
          "name": "_fulfillmentId",
          "type": "uint256"
        }
      ],
      "name": "acceptFulfillment",
      "outputs": [],
      "payable": false,
      "stateMutability": "nonpayable",
      "type": "function",
      "signature": "0xd9583497"
    },
    {
      "constant": false,
      "inputs": [
        {
          "name": "_bountyId",
          "type": "uint256"
        }
      ],
      "name": "cancelBounty",
      "outputs": [],
      "payable": false,
      "stateMutability": "nonpayable",
      "type": "function",
      "signature": "0xe5e5dff1"
    }
  ],
  "bytecode": "0x60806040526000603360006101000a81548160ff02191690831515021790555034801561002b57600080fd5b506119378061003b6000396000f3fe608060405260043610610083576000357c0100000000000000000000000000000000000000000000000000000000900463ffffffff1680631385d24c146100885780631e688c141461009f5780638129fc1c14610171578063a372625314610188578063b74d20b51461026b578063d958349714610375578063e5e5dff1146103ba575b600080fd5b34801561009457600080fd5b5061009d6103f5565b005b3480156100ab57600080fd5b5061016f600480360360408110156100c257600080fd5b8101908080359060200190929190803590602001906401000000008111156100e957600080fd5b8201836020820111156100fb57600080fd5b8035906020019184600183028401116401000000008311171561011d57600080fd5b91908080601f016020809104026020016040519081016040528093929190818152602001838380828437600081840152601f19601f82011690508083019250505050505050919291929050505061047d565b005b34801561017d57600080fd5b50610186610930565b005b6102556004803603604081101561019e57600080fd5b81019080803590602001906401000000008111156101bb57600080fd5b8201836020820111156101cd57600080fd5b803590602001918460018302840111640100000000831117156101ef57600080fd5b91908080601f016020809104026020016040519081016040528093929190818152602001838380828437600081840152601f19601f820116905080830192505050505050509192919290803567ffffffffffffffff169060200190929190505050610a74565b6040518082815260200191505060405180910390f35b34801561027757600080fd5b506102a46004803603602081101561028e57600080fd5b8101908080359060200190929190505050610da6565b604051808673ffffffffffffffffffffffffffffffffffffffff1673ffffffffffffffffffffffffffffffffffffffff168152602001858152602001806020018460028111156102f057fe5b60ff168152602001838152602001828103825285818151815260200191508051906020019080838360005b8381101561033657808201518184015260208101905061031b565b50505050905090810190601f1680156103635780820380516001836020036101000a031916815260200191505b50965050505050505060405180910390f35b34801561038157600080fd5b506103b86004803603604081101561039857600080fd5b810190808035906020019092919080359060200190929190505050610eb0565b005b3480156103c657600080fd5b506103f3600480360360208110156103dd57600080fd5b81019080803590602001909291905050506114d8565b005b603360019054906101000a900473ffffffffffffffffffffffffffffffffffffffff1673ffffffffffffffffffffffffffffffffffffffff163373ffffffffffffffffffffffffffffffffffffffff1614151561045157600080fd5b603360009054906101000a900460ff1615603360006101000a81548160ff021916908315150217905550565b81603480549050811015156104fa576040517f08c379a00000000000000000000000000000000000000000000000000000000081526004018080602001828103825260158152602001807f426f756e747920616c726561647920657869737473000000000000000000000081525060200191505060405180910390fd5b8260348181548110151561050a57fe5b906000526020600020906005020160000160009054906101000a900473ffffffffffffffffffffffffffffffffffffffff1673ffffffffffffffffffffffffffffffffffffffff163373ffffffffffffffffffffffffffffffffffffffff16141515156105df576040517f08c379a00000000000000000000000000000000000000000000000000000000081526004018080602001828103825260138152602001807f596f7572206e6f7420746865206973737565720000000000000000000000000081525060200191505060405180910390fd5b8360008060028111156105ee57fe5b6034838154811015156105fd57fe5b906000526020600020906005020160030160009054906101000a900460ff16600281111561062757fe5b14151561069c576040517f08c379a00000000000000000000000000000000000000000000000000000000081526004018080602001828103825260188152602001807f54686572652073686f756c64206265206120737461747573000000000000000081525060200191505060405180910390fd5b856034818154811015156106ac57fe5b90600052602060002090600502016001015442101515610734576040517f08c379a00000000000000000000000000000000000000000000000000000000081526004018080602001828103825260198152602001807f53686f756c64206265206265666f726520646561646c696e650000000000000081525060200191505060405180910390fd5b603560008881526020019081526020016000206060604051908101604052806000151581526020013373ffffffffffffffffffffffffffffffffffffffff168152602001888152509080600181540180825580915050906001820390600052602060002090600202016000909192909190915060008201518160000160006101000a81548160ff02191690831515021790555060208201518160000160016101000a81548173ffffffffffffffffffffffffffffffffffffffff021916908373ffffffffffffffffffffffffffffffffffffffff160217905550604082015181600101908051906020019061082a929190611866565b505050507fc4f0fe8da4c31907c5e6741ec9f6c2761aef2c6f0aa407d1f22b1420932631b387336001603560008c8152602001908152602001600020805490500389604051808581526020018473ffffffffffffffffffffffffffffffffffffffff1673ffffffffffffffffffffffffffffffffffffffff16815260200183815260200180602001828103825283818151815260200191508051906020019080838360005b838110156108ea5780820151818401526020810190506108cf565b50505050905090810190601f1680156109175780820380516001836020036101000a031916815260200191505b509550505050505060405180910390a150505050505050565b600060019054906101000a900460ff168061094f575061094e611855565b5b8061096657506000809054906101000a900460ff16155b1515610a00576040517f08c379a000000000000000000000000000000000000000000000000000000000815260040180806020018281038252602e8152602001807f436f6e747261637420696e7374616e63652068617320616c726561647920626581526020017f656e20696e697469616c697a656400000000000000000000000000000000000081525060400191505060405180910390fd5b60008060019054906101000a900460ff161590508015610a50576001600060016101000a81548160ff02191690831515021790555060016000806101000a81548160ff0219169083151502179055505b8015610a715760008060016101000a81548160ff0219169083151502179055505b50565b6000603360009054906101000a900460ff161515610da057600034111515610b04576040517f08c379a00000000000000000000000000000000000000000000000000000000081526004018080602001828103825260178152602001807f54686572652073686f756c6420626520612076616c756500000000000000000081525060200191505060405180910390fd5b8167ffffffffffffffff164281111515610b86576040517f08c379a00000000000000000000000000000000000000000000000000000000081526004018080602001828103825260208152602001807f446561646c696e652073686f756c6420626520696e207468652066757475726581525060200191505060405180910390fd5b603460a0604051908101604052803373ffffffffffffffffffffffffffffffffffffffff1681526020018567ffffffffffffffff16815260200186815260200160006002811115610bd357fe5b8152602001348152509080600181540180825580915050906001820390600052602060002090600502016000909192909190915060008201518160000160006101000a81548173ffffffffffffffffffffffffffffffffffffffff021916908373ffffffffffffffffffffffffffffffffffffffff160217905550602082015181600101556040820151816002019080519060200190610c74929190611866565b5060608201518160030160006101000a81548160ff02191690836002811115610c9957fe5b0217905550608082015181600401555050507fba1576d8891bfe57a45ac4b986d4a4aa912c62f44771d4eec8ab2ce06e3be5b7600160348054905003333487604051808581526020018473ffffffffffffffffffffffffffffffffffffffff1673ffffffffffffffffffffffffffffffffffffffff16815260200183815260200180602001828103825283818151815260200191508051906020019080838360005b83811015610d56578082015181840152602081019050610d3b565b50505050905090810190601f168015610d835780820380516001836020036101000a031916815260200191505b509550505050505060405180910390a16001603480549050039150505b92915050565b603481815481101515610db557fe5b90600052602060002090600502016000915090508060000160009054906101000a900473ffffffffffffffffffffffffffffffffffffffff1690806001015490806002018054600181600116156101000203166002900480601f016020809104026020016040519081016040528092919081815260200182805460018160011615610100020316600290048015610e8d5780601f10610e6257610100808354040283529160200191610e8d565b820191906000526020600020905b815481529060010190602001808311610e7057829003601f168201915b5050505050908060030160009054906101000a900460ff16908060040154905085565b603360009054906101000a900460ff16156114d4578160348054905081101515610f42576040517f08c379a00000000000000000000000000000000000000000000000000000000081526004018080602001828103825260158152602001807f426f756e747920616c726561647920657869737473000000000000000000000081525060200191505060405180910390fd5b8282603560008381526020019081526020016000208054905081101515610fd1576040517f08c379a000000000000000000000000000000000000000000000000000000000815260040180806020018281038252601e8152602001807f5468652066756c66696c6c6d656e7420616c726561647920657869737473000081525060200191505060405180910390fd5b84603481815481101515610fe157fe5b906000526020600020906005020160000160009054906101000a900473ffffffffffffffffffffffffffffffffffffffff1673ffffffffffffffffffffffffffffffffffffffff163373ffffffffffffffffffffffffffffffffffffffff161415156110b5576040517f08c379a000000000000000000000000000000000000000000000000000000000815260040180806020018281038252601b8152602001807f596f752063616e6e6f742063616c6c2074686973206d6574686f64000000000081525060200191505060405180910390fd5b8560008060028111156110c457fe5b6034838154811015156110d357fe5b906000526020600020906005020160030160009054906101000a900460ff1660028111156110fd57fe5b141515611172576040517f08c379a00000000000000000000000000000000000000000000000000000000081526004018080602001828103825260188152602001807f54686572652073686f756c64206265206120737461747573000000000000000081525060200191505060405180910390fd5b878760001515603560008481526020019081526020016000208281548110151561119857fe5b906000526020600020906002020160000160009054906101000a900460ff16151514151561122e576040517f08c379a00000000000000000000000000000000000000000000000000000000081526004018080602001828103825260188152602001807f46756c66696c6c6d656e74206e6f74206163636570746564000000000000000081525060200191505060405180910390fd5b6001603560008c81526020019081526020016000208a81548110151561125057fe5b906000526020600020906002020160000160006101000a81548160ff021916908315150217905550600160348b81548110151561128957fe5b906000526020600020906005020160030160006101000a81548160ff021916908360028111156112b557fe5b0217905550603560008b8152602001908152602001600020898154811015156112da57fe5b906000526020600020906002020160000160019054906101000a900473ffffffffffffffffffffffffffffffffffffffff1673ffffffffffffffffffffffffffffffffffffffff166108fc60348c81548110151561133457fe5b9060005260206000209060050201600401549081150290604051600060405180830381858888f19350505050158015611371573d6000803e3d6000fd5b50887f85d45a4e923ea9b336558bcd434d3f474644affd5df115bba14b63e75425bde48b60348d8154811015156113a457fe5b906000526020600020906005020160000160009054906101000a900473ffffffffffffffffffffffffffffffffffffffff16603560008f81526020019081526020016000208d8154811015156113f657fe5b906000526020600020906002020160000160019054906101000a900473ffffffffffffffffffffffffffffffffffffffff1660348f81548110151561143757fe5b906000526020600020906005020160040154604051808581526020018473ffffffffffffffffffffffffffffffffffffffff1673ffffffffffffffffffffffffffffffffffffffff1681526020018373ffffffffffffffffffffffffffffffffffffffff1673ffffffffffffffffffffffffffffffffffffffff16815260200182815260200194505050505060405180910390a250505050505050505b5050565b8060348054905081101515611555576040517f08c379a00000000000000000000000000000000000000000000000000000000081526004018080602001828103825260158152602001807f426f756e747920616c726561647920657869737473000000000000000000000081525060200191505060405180910390fd5b8160348181548110151561156557fe5b906000526020600020906005020160000160009054906101000a900473ffffffffffffffffffffffffffffffffffffffff1673ffffffffffffffffffffffffffffffffffffffff163373ffffffffffffffffffffffffffffffffffffffff16141515611639576040517f08c379a000000000000000000000000000000000000000000000000000000000815260040180806020018281038252601b8152602001807f596f752063616e6e6f742063616c6c2074686973206d6574686f64000000000081525060200191505060405180910390fd5b82600080600281111561164857fe5b60348381548110151561165757fe5b906000526020600020906005020160030160009054906101000a900460ff16600281111561168157fe5b1415156116f6576040517f08c379a00000000000000000000000000000000000000000000000000000000081526004018080602001828103825260188152602001807f54686572652073686f756c64206265206120737461747573000000000000000081525060200191505060405180910390fd5b600260348681548110151561170757fe5b906000526020600020906005020160030160006101000a81548160ff0219169083600281111561173357fe5b021790555060348581548110151561174757fe5b906000526020600020906005020160000160009054906101000a900473ffffffffffffffffffffffffffffffffffffffff1673ffffffffffffffffffffffffffffffffffffffff166108fc6034878154811015156117a157fe5b9060005260206000209060050201600401549081150290604051600060405180830381858888f193505050501580156117de573d6000803e3d6000fd5b503373ffffffffffffffffffffffffffffffffffffffff16857fb9670bf4f2273686f771c9ab65309436df5ed75afa63eefec8b67640d8bcf72c60348881548110151561182757fe5b9060005260206000209060050201600401546040518082815260200191505060405180910390a35050505050565b600080303b90506000811491505090565b828054600181600116156101000203166002900490600052602060002090601f016020900481019282601f106118a757805160ff19168380011785556118d5565b828001600101855582156118d5579182015b828111156118d45782518255916020019190600101906118b9565b5b5090506118e291906118e6565b5090565b61190891905b808211156119045760008160009055506001016118ec565b5090565b9056fea165627a7a7230582006c4a4d6dd789eacab4299d9342c23eb6b95e70cf50a36bd47b281722c9edcff0029",
  "source": "pragma solidity ^0.5.0;\n\nimport \"zos-lib/contracts/Initializable.sol\";\n\n/**\n* @title JobBounty\n* @author Otim Fredrick- <fredrickot@gmail.com>\n* @dev A smart contract which allows someone [a poster] to post work in ETH linked with description\n* And anyone [submitter] can submit a solution as evidence of fulfillment to the work.\n*/\ncontract JobBounty is Initializable {\n\n    bool private stopped = false;\n    address private owner;\n\n    /** Status of bounty */\n    enum BountyStatus { CREATED, ACCEPTED, CANCELLED }\n    \n    /** Bounty details */\n    struct BountyDetail {\n        address payable issuer;\n        uint deadline;\n        string description;\n        BountyStatus status;\n        uint amount;         // in wei\n    }\n\n    /** Detail of Successful bounty */\n    struct Success {\n      bool accepted;\n      address payable submitter;\n      string data;\n    }\n    \n    /** Storage for the bounty */\n    BountyDetail[] public bountyDetails;\n\n    /** Storage for the bounty successes */\n    mapping(uint => Success[]) successes;\n    \n    /**\n    * @dev Contructor\n    */\n    function initialize() public initializer {\n    }\n\n    /** Suspend the contract incase of bug  */\n    function toggleContractActive() isAdmin public\n    {\n        stopped = !stopped;\n    }\n    \n    /**\n    * @dev issueBounty(): instantiates a new bountyDetail\n    * @param _deadline the deadline for the bounty\n    * @param _description the description of the bountyDetail\n    * Can cancel sending funds incase bug with modifier stopInEmergency\n    */\n    function issueBounty(string memory _description, uint64 _deadline)\n        public \n        stopInEmergency \n        payable \n        hasValue() \n        validateDeadline(_deadline) \n        returns(uint)\n    {\n        bountyDetails.push(BountyDetail(msg.sender, _deadline, _description, BountyStatus.CREATED, msg.value));\n        emit BountyIssued(bountyDetails.length - 1, msg.sender, msg.value, _description);\n        return (bountyDetails.length - 1);\n    }\n    \n    /**\n    * @dev fulfillBounty(): send a submission for the given bounty\n    * @param _bountyId the index of the bounty to be fufilled\n    * @param _description the ipfs hash which contains evidence of the submission\n    */\n    function fulfillBounty(uint _bountyId, string memory _description)\n        public\n        bountyExists(_bountyId)\n        notIssuer(_bountyId)\n        hasStatus(_bountyId, BountyStatus.CREATED)\n        isBeforeDeadline(_bountyId)\n    {\n        successes[_bountyId].push(Success(false, msg.sender, _description));\n        emit BountyFulfilled(_bountyId, msg.sender, (successes[_bountyId].length - 1), _description);\n    }\n    \n    /**\n    * @dev acceptFulfillment(): accept a given submission\n    * @param _bountyId the index of the bounty\n    * @param _fulfillmentId the index of the submission being accepted\n    * Can fulfil submission in crucial state of the system\n    */\n    function acceptFulfillment(uint _bountyId, uint _fulfillmentId)\n      public\n      onlyInEmergency\n      bountyExists(_bountyId)\n      fulfillmentExists(_bountyId, _fulfillmentId)\n      onlyIssuer(_bountyId)\n      hasStatus(_bountyId, BountyStatus.CREATED)\n      fulfillmentNotYetAccepted(_bountyId, _fulfillmentId)\n    {\n        successes[_bountyId][_fulfillmentId].accepted = true;\n        bountyDetails[_bountyId].status = BountyStatus.ACCEPTED;\n        successes[_bountyId][_fulfillmentId].submitter.transfer(bountyDetails[_bountyId].amount);\n        emit FulfillmentAccepted(\n          _bountyId, bountyDetails[_bountyId].issuer,\n          successes[_bountyId][_fulfillmentId].submitter,\n          _fulfillmentId, bountyDetails[_bountyId].amount\n        );\n    }\n    \n    /** @dev cancelBounty(): cancels the bounty and send the funds back to the issuer\n    * @param _bountyId the index of the bounty\n    */\n    function cancelBounty(uint _bountyId)\n      public\n      bountyExists(_bountyId)\n      onlyIssuer(_bountyId)\n      hasStatus(_bountyId, BountyStatus.CREATED)\n    {\n      bountyDetails[_bountyId].status = BountyStatus.CANCELLED;\n      bountyDetails[_bountyId].issuer.transfer(bountyDetails[_bountyId].amount);\n      emit BountyCancelled(_bountyId, msg.sender, bountyDetails[_bountyId].amount);\n    }\n    \n    /** Modifiers */\n    modifier validateDeadline(uint _newDeadline) {\n        require(_newDeadline > now, \"Deadline should be in the future\");\n        _;\n    }\n    modifier hasValue() {\n        require(msg.value > 0, \"There should be a value\");\n        _;\n    }\n    modifier bountyExists(uint _bountyId){\n        require(_bountyId < bountyDetails.length, \"Bounty already exists\");\n        _;\n    }\n    modifier onlyIssuer(uint _bountyId) {\n      require(msg.sender == bountyDetails[_bountyId].issuer, \"You cannot call this method\");\n      _;\n    }\n    modifier notIssuer(uint _bountyId){\n        require(msg.sender != bountyDetails[_bountyId].issuer, \"Your not the issuer\");\n        _;\n    }\n    modifier hasStatus(uint _bountyId, BountyStatus _exactStatus) {\n        require(bountyDetails[_bountyId].status == _exactStatus, \"There should be a status\");\n        _;\n    }\n    modifier isBeforeDeadline(uint _bountyId) {\n        require(now < bountyDetails[_bountyId].deadline, \"Should be before deadline\");\n        _;\n    }\n    modifier fulfillmentNotYetAccepted(uint _bountyId, uint _fulfillmentId) {\n        require(successes[_bountyId][_fulfillmentId].accepted == false, \"Fulfillment not accepted\");\n        _;\n    }\n    modifier fulfillmentExists(uint _bountyId, uint _fulfillmentId){\n        require(_fulfillmentId < successes[_bountyId].length, \"The fulfillment already exists\");\n        _;\n    }\n\n    /**circuit breaker modifier */\n    modifier isAdmin() {\n        if(msg.sender != owner) {\n            revert();\n        }\n        _;\n    }\n    modifier stopInEmergency { if (!stopped) _; }\n    modifier onlyInEmergency { if (stopped) _; }\n    \n    /** Events */\n    event BountyIssued(uint bounty_id, address issuer, uint amount, string description);\n    event BountyFulfilled(uint bounty_id, address fulfiller, uint fulfillment_id, string description);\n    event FulfillmentAccepted(uint bounty_id, address issuer, address fulfiller, uint indexed fulfillment_id, uint amount);\n    event BountyCancelled(uint indexed bounty_id, address indexed issuer, uint amount);\n}",
  "sourcePath": "/Users/fredrickotim/Documents/programming/ethereum/JobBounty/contracts/JobBounty.sol",
  "compiler": {
    "name": "solc",
    "version": "0.5.0+commit.1d4f565a.Emscripten.clang"
  },
  "schemaVersion": "3.0.5",
  "updatedAt": "2019-06-21T05:22:07.358Z",
  "devdoc": {
    "author": "Otim Fredrick- <fredrickot@gmail.com>",
    "details": "A smart contract which allows someone [a poster] to post work in ETH linked with description And anyone [submitter] can submit a solution as evidence of fulfillment to the work.",
    "methods": {
      "acceptFulfillment(uint256,uint256)": {
        "details": "acceptFulfillment(): accept a given submission",
        "params": {
          "_bountyId": "the index of the bounty",
          "_fulfillmentId": "the index of the submission being accepted Can fulfil submission in crucial state of the system"
        }
      },
      "cancelBounty(uint256)": {
        "details": "cancelBounty(): cancels the bounty and send the funds back to the issuer",
        "params": {
          "_bountyId": "the index of the bounty"
        }
      },
      "fulfillBounty(uint256,string)": {
        "details": "fulfillBounty(): send a submission for the given bounty",
        "params": {
          "_bountyId": "the index of the bounty to be fufilled",
          "_description": "the ipfs hash which contains evidence of the submission"
        }
      },
      "initialize()": {
        "details": "Contructor"
      },
      "issueBounty(string,uint64)": {
        "details": "issueBounty(): instantiates a new bountyDetail",
        "params": {
          "_deadline": "the deadline for the bounty",
          "_description": "the description of the bountyDetail Can cancel sending funds incase bug with modifier stopInEmergency"
        }
      }
    },
    "title": "JobBounty"
  },
  "userdoc": {
    "methods": {
      "toggleContractActive()": {
        "notice": "Suspend the contract incase of bug  "
      }
    }
  }
}