{
  "contractName": "JobBounty",
  "abi": [
    {
      "constant": true,
      "inputs": [
        {
          "name": "",
          "type": "uint256"
        }
      ],
      "name": "bountyDetails",
      "outputs": [
        {
          "name": "issuer",
          "type": "address"
        },
        {
          "name": "deadline",
          "type": "uint256"
        },
        {
          "name": "description",
          "type": "string"
        },
        {
          "name": "status",
          "type": "uint8"
        },
        {
          "name": "amount",
          "type": "uint256"
        }
      ],
      "payable": false,
      "stateMutability": "view",
      "type": "function"
    },
    {
      "inputs": [],
      "payable": false,
      "stateMutability": "nonpayable",
      "type": "constructor"
    },
    {
      "anonymous": false,
      "inputs": [
        {
          "indexed": false,
          "name": "bounty_id",
          "type": "uint256"
        },
        {
          "indexed": false,
          "name": "issuer",
          "type": "address"
        },
        {
          "indexed": false,
          "name": "amount",
          "type": "uint256"
        },
        {
          "indexed": false,
          "name": "description",
          "type": "string"
        }
      ],
      "name": "BountyIssued",
      "type": "event"
    },
    {
      "anonymous": false,
      "inputs": [
        {
          "indexed": false,
          "name": "bounty_id",
          "type": "uint256"
        },
        {
          "indexed": false,
          "name": "fulfiller",
          "type": "address"
        },
        {
          "indexed": false,
          "name": "fulfillment_id",
          "type": "uint256"
        },
        {
          "indexed": false,
          "name": "description",
          "type": "string"
        }
      ],
      "name": "BountyFulfilled",
      "type": "event"
    },
    {
      "anonymous": false,
      "inputs": [
        {
          "indexed": false,
          "name": "bounty_id",
          "type": "uint256"
        },
        {
          "indexed": false,
          "name": "issuer",
          "type": "address"
        },
        {
          "indexed": false,
          "name": "fulfiller",
          "type": "address"
        },
        {
          "indexed": true,
          "name": "fulfillment_id",
          "type": "uint256"
        },
        {
          "indexed": false,
          "name": "amount",
          "type": "uint256"
        }
      ],
      "name": "FulfillmentAccepted",
      "type": "event"
    },
    {
      "anonymous": false,
      "inputs": [
        {
          "indexed": true,
          "name": "bounty_id",
          "type": "uint256"
        },
        {
          "indexed": true,
          "name": "issuer",
          "type": "address"
        },
        {
          "indexed": false,
          "name": "amount",
          "type": "uint256"
        }
      ],
      "name": "BountyCancelled",
      "type": "event"
    },
    {
      "constant": false,
      "inputs": [
        {
          "name": "_description",
          "type": "string"
        },
        {
          "name": "_deadline",
          "type": "uint64"
        }
      ],
      "name": "issueBounty",
      "outputs": [
        {
          "name": "",
          "type": "uint256"
        }
      ],
      "payable": true,
      "stateMutability": "payable",
      "type": "function"
    },
    {
      "constant": false,
      "inputs": [
        {
          "name": "_bountyId",
          "type": "uint256"
        },
        {
          "name": "_description",
          "type": "string"
        }
      ],
      "name": "fulfillBounty",
      "outputs": [],
      "payable": false,
      "stateMutability": "nonpayable",
      "type": "function"
    },
    {
      "constant": false,
      "inputs": [
        {
          "name": "_bountyId",
          "type": "uint256"
        },
        {
          "name": "_fulfillmentId",
          "type": "uint256"
        }
      ],
      "name": "acceptFulfillment",
      "outputs": [],
      "payable": false,
      "stateMutability": "nonpayable",
      "type": "function"
    },
    {
      "constant": false,
      "inputs": [
        {
          "name": "_bountyId",
          "type": "uint256"
        }
      ],
      "name": "cancelBounty",
      "outputs": [],
      "payable": false,
      "stateMutability": "nonpayable",
      "type": "function"
    }
  ],
  "bytecode": "0x608060405234801561001057600080fd5b506116e6806100206000396000f3fe60806040526004361061006d576000357c0100000000000000000000000000000000000000000000000000000000900463ffffffff1680631e688c1414610072578063a372625314610144578063b74d20b514610227578063d958349714610331578063e5e5dff114610376575b600080fd5b34801561007e57600080fd5b506101426004803603604081101561009557600080fd5b8101908080359060200190929190803590602001906401000000008111156100bc57600080fd5b8201836020820111156100ce57600080fd5b803590602001918460018302840111640100000000831117156100f057600080fd5b91908080601f016020809104026020016040519081016040528093929190818152602001838380828437600081840152601f19601f8201169050808301925050505050505091929192905050506103b1565b005b6102116004803603604081101561015a57600080fd5b810190808035906020019064010000000081111561017757600080fd5b82018360208201111561018957600080fd5b803590602001918460018302840111640100000000831117156101ab57600080fd5b91908080601f016020809104026020016040519081016040528093929190818152602001838380828437600081840152601f19601f820116905080830192505050505050509192919290803567ffffffffffffffff169060200190929190505050610863565b6040518082815260200191505060405180910390f35b34801561023357600080fd5b506102606004803603602081101561024a57600080fd5b8101908080359060200190929190505050610b7d565b604051808673ffffffffffffffffffffffffffffffffffffffff1673ffffffffffffffffffffffffffffffffffffffff168152602001858152602001806020018460028111156102ac57fe5b60ff168152602001838152602001828103825285818151815260200191508051906020019080838360005b838110156102f25780820151818401526020810190506102d7565b50505050905090810190601f16801561031f5780820380516001836020036101000a031916815260200191505b50965050505050505060405180910390f35b34801561033d57600080fd5b506103746004803603604081101561035457600080fd5b810190808035906020019092919080359060200190929190505050610c87565b005b34801561038257600080fd5b506103af6004803603602081101561039957600080fd5b8101908080359060200190929190505050611298565b005b816000805490508110151561042e576040517f08c379a00000000000000000000000000000000000000000000000000000000081526004018080602001828103825260158152602001807f426f756e747920616c726561647920657869737473000000000000000000000081525060200191505060405180910390fd5b8260008181548110151561043e57fe5b906000526020600020906005020160000160009054906101000a900473ffffffffffffffffffffffffffffffffffffffff1673ffffffffffffffffffffffffffffffffffffffff163373ffffffffffffffffffffffffffffffffffffffff1614151515610513576040517f08c379a00000000000000000000000000000000000000000000000000000000081526004018080602001828103825260138152602001807f596f7572206e6f7420746865206973737565720000000000000000000000000081525060200191505060405180910390fd5b83600080600281111561052257fe5b60008381548110151561053157fe5b906000526020600020906005020160030160009054906101000a900460ff16600281111561055b57fe5b1415156105d0576040517f08c379a00000000000000000000000000000000000000000000000000000000081526004018080602001828103825260188152602001807f54686572652073686f756c64206265206120737461747573000000000000000081525060200191505060405180910390fd5b856000818154811015156105e057fe5b90600052602060002090600502016001015442101515610668576040517f08c379a00000000000000000000000000000000000000000000000000000000081526004018080602001828103825260198152602001807f53686f756c64206265206265666f726520646561646c696e650000000000000081525060200191505060405180910390fd5b600160008881526020019081526020016000206060604051908101604052806000151581526020013373ffffffffffffffffffffffffffffffffffffffff168152602001888152509080600181540180825580915050906001820390600052602060002090600202016000909192909190915060008201518160000160006101000a81548160ff02191690831515021790555060208201518160000160016101000a81548173ffffffffffffffffffffffffffffffffffffffff021916908373ffffffffffffffffffffffffffffffffffffffff160217905550604082015181600101908051906020019061075e929190611615565b505050507fc4f0fe8da4c31907c5e6741ec9f6c2761aef2c6f0aa407d1f22b1420932631b3873360018060008c8152602001908152602001600020805490500389604051808581526020018473ffffffffffffffffffffffffffffffffffffffff1673ffffffffffffffffffffffffffffffffffffffff16815260200183815260200180602001828103825283818151815260200191508051906020019080838360005b8381101561081d578082015181840152602081019050610802565b50505050905090810190601f16801561084a5780820380516001836020036101000a031916815260200191505b509550505050505060405180910390a150505050505050565b600080341115156108dc576040517f08c379a00000000000000000000000000000000000000000000000000000000081526004018080602001828103825260178152602001807f54686572652073686f756c6420626520612076616c756500000000000000000081525060200191505060405180910390fd5b8167ffffffffffffffff16428111151561095e576040517f08c379a00000000000000000000000000000000000000000000000000000000081526004018080602001828103825260208152602001807f446561646c696e652073686f756c6420626520696e207468652066757475726581525060200191505060405180910390fd5b600060a0604051908101604052803373ffffffffffffffffffffffffffffffffffffffff1681526020018567ffffffffffffffff168152602001868152602001600060028111156109ab57fe5b8152602001348152509080600181540180825580915050906001820390600052602060002090600502016000909192909190915060008201518160000160006101000a81548173ffffffffffffffffffffffffffffffffffffffff021916908373ffffffffffffffffffffffffffffffffffffffff160217905550602082015181600101556040820151816002019080519060200190610a4c929190611615565b5060608201518160030160006101000a81548160ff02191690836002811115610a7157fe5b0217905550608082015181600401555050507fba1576d8891bfe57a45ac4b986d4a4aa912c62f44771d4eec8ab2ce06e3be5b7600160008054905003333487604051808581526020018473ffffffffffffffffffffffffffffffffffffffff1673ffffffffffffffffffffffffffffffffffffffff16815260200183815260200180602001828103825283818151815260200191508051906020019080838360005b83811015610b2e578082015181840152602081019050610b13565b50505050905090810190601f168015610b5b5780820380516001836020036101000a031916815260200191505b509550505050505060405180910390a160016000805490500391505092915050565b600081815481101515610b8c57fe5b90600052602060002090600502016000915090508060000160009054906101000a900473ffffffffffffffffffffffffffffffffffffffff1690806001015490806002018054600181600116156101000203166002900480601f016020809104026020016040519081016040528092919081815260200182805460018160011615610100020316600290048015610c645780601f10610c3957610100808354040283529160200191610c64565b820191906000526020600020905b815481529060010190602001808311610c4757829003601f168201915b5050505050908060030160009054906101000a900460ff16908060040154905085565b8160008054905081101515610d04576040517f08c379a00000000000000000000000000000000000000000000000000000000081526004018080602001828103825260158152602001807f426f756e747920616c726561647920657869737473000000000000000000000081525060200191505060405180910390fd5b8282600160008381526020019081526020016000208054905081101515610d93576040517f08c379a000000000000000000000000000000000000000000000000000000000815260040180806020018281038252601e8152602001807f5468652066756c66696c6c6d656e7420616c726561647920657869737473000081525060200191505060405180910390fd5b84600081815481101515610da357fe5b906000526020600020906005020160000160009054906101000a900473ffffffffffffffffffffffffffffffffffffffff1673ffffffffffffffffffffffffffffffffffffffff163373ffffffffffffffffffffffffffffffffffffffff16141515610e77576040517f08c379a000000000000000000000000000000000000000000000000000000000815260040180806020018281038252601b8152602001807f596f752063616e6e6f742063616c6c2074686973206d6574686f64000000000081525060200191505060405180910390fd5b856000806002811115610e8657fe5b600083815481101515610e9557fe5b906000526020600020906005020160030160009054906101000a900460ff166002811115610ebf57fe5b141515610f34576040517f08c379a00000000000000000000000000000000000000000000000000000000081526004018080602001828103825260188152602001807f54686572652073686f756c64206265206120737461747573000000000000000081525060200191505060405180910390fd5b8787600015156001600084815260200190815260200160002082815481101515610f5a57fe5b906000526020600020906002020160000160009054906101000a900460ff161515141515610ff0576040517f08c379a00000000000000000000000000000000000000000000000000000000081526004018080602001828103825260188152602001807f46756c66696c6c6d656e74206e6f74206163636570746564000000000000000081525060200191505060405180910390fd5b60018060008c81526020019081526020016000208a81548110151561101157fe5b906000526020600020906002020160000160006101000a81548160ff021916908315150217905550600160008b81548110151561104a57fe5b906000526020600020906005020160030160006101000a81548160ff0219169083600281111561107657fe5b0217905550600160008b81526020019081526020016000208981548110151561109b57fe5b906000526020600020906002020160000160019054906101000a900473ffffffffffffffffffffffffffffffffffffffff1673ffffffffffffffffffffffffffffffffffffffff166108fc60008c8154811015156110f557fe5b9060005260206000209060050201600401549081150290604051600060405180830381858888f19350505050158015611132573d6000803e3d6000fd5b50887f85d45a4e923ea9b336558bcd434d3f474644affd5df115bba14b63e75425bde48b60008d81548110151561116557fe5b906000526020600020906005020160000160009054906101000a900473ffffffffffffffffffffffffffffffffffffffff16600160008f81526020019081526020016000208d8154811015156111b757fe5b906000526020600020906002020160000160019054906101000a900473ffffffffffffffffffffffffffffffffffffffff1660008f8154811015156111f857fe5b906000526020600020906005020160040154604051808581526020018473ffffffffffffffffffffffffffffffffffffffff1673ffffffffffffffffffffffffffffffffffffffff1681526020018373ffffffffffffffffffffffffffffffffffffffff1673ffffffffffffffffffffffffffffffffffffffff16815260200182815260200194505050505060405180910390a250505050505050505050565b8060008054905081101515611315576040517f08c379a00000000000000000000000000000000000000000000000000000000081526004018080602001828103825260158152602001807f426f756e747920616c726561647920657869737473000000000000000000000081525060200191505060405180910390fd5b8160008181548110151561132557fe5b906000526020600020906005020160000160009054906101000a900473ffffffffffffffffffffffffffffffffffffffff1673ffffffffffffffffffffffffffffffffffffffff163373ffffffffffffffffffffffffffffffffffffffff161415156113f9576040517f08c379a000000000000000000000000000000000000000000000000000000000815260040180806020018281038252601b8152602001807f596f752063616e6e6f742063616c6c2074686973206d6574686f64000000000081525060200191505060405180910390fd5b82600080600281111561140857fe5b60008381548110151561141757fe5b906000526020600020906005020160030160009054906101000a900460ff16600281111561144157fe5b1415156114b6576040517f08c379a00000000000000000000000000000000000000000000000000000000081526004018080602001828103825260188152602001807f54686572652073686f756c64206265206120737461747573000000000000000081525060200191505060405180910390fd5b60026000868154811015156114c757fe5b906000526020600020906005020160030160006101000a81548160ff021916908360028111156114f357fe5b021790555060008581548110151561150757fe5b906000526020600020906005020160000160009054906101000a900473ffffffffffffffffffffffffffffffffffffffff1673ffffffffffffffffffffffffffffffffffffffff166108fc60008781548110151561156157fe5b9060005260206000209060050201600401549081150290604051600060405180830381858888f1935050505015801561159e573d6000803e3d6000fd5b503373ffffffffffffffffffffffffffffffffffffffff16857fb9670bf4f2273686f771c9ab65309436df5ed75afa63eefec8b67640d8bcf72c6000888154811015156115e757fe5b9060005260206000209060050201600401546040518082815260200191505060405180910390a35050505050565b828054600181600116156101000203166002900490600052602060002090601f016020900481019282601f1061165657805160ff1916838001178555611684565b82800160010185558215611684579182015b82811115611683578251825591602001919060010190611668565b5b5090506116919190611695565b5090565b6116b791905b808211156116b357600081600090555060010161169b565b5090565b9056fea165627a7a72305820c19700825f7209ae7a4fc8bb018f38bca669e492d98a9dc653703c829a933aa50029",
  "source": "pragma solidity ^0.5.0;\n\n/**\n* @title JobBounty\n* @author Otim Fredrick- <fredrickot@gmail.com>\n* @dev A smart contract which allows someone [a poster] to post work in ETH linked with description\n* And anyone [submitter] can submit a solution as evidence of fulfillment to the work.\n*/\ncontract JobBounty {\n    \n    /*\n    * Enum\n    */\n    enum BountyStatus { CREATED, ACCEPTED, CANCELLED }\n    /*\n    * Structs\n    */\n    struct BountyDetail {\n        address payable issuer;\n        uint deadline;\n        string description;\n        BountyStatus status;\n        uint amount;         // in wei\n    }\n    struct Success {\n      bool accepted;\n      address payable submitter;\n      string data;\n    }\n    /*\n    * Storage\n    */\n    BountyDetail[] public bountyDetails;\n    mapping(uint => Success[]) successes;\n    \n    /**\n    * @dev Contructor\n    */\n    constructor() public  {}\n    \n    /**\n    * @dev issueBounty(): instantiates a new bountyDetail\n    * @param _deadline the unix timestamp after which fulfillments will no longer be accepted\n    * @param _description the description of the bountyDetail\n    */\n    function issueBounty(string memory _description, uint64 _deadline)\n        public payable hasValue() validateDeadline(_deadline) returns(uint)\n    {\n        bountyDetails.push(BountyDetail(msg.sender, _deadline, _description, BountyStatus.CREATED, msg.value));\n        emit BountyIssued(bountyDetails.length - 1, msg.sender, msg.value, _description);\n        return (bountyDetails.length - 1);\n    }\n    \n    /**\n    * @dev fulfillBounty(): submit a fulfillment for the given bounty\n    * @param _bountyId the index of the bounty to be fufilled\n    * @param _description the ipfs hash which contains evidence of the fufillment\n    */\n    function fulfillBounty(uint _bountyId, string memory _description)\n        public\n        bountyExists(_bountyId)\n        notIssuer(_bountyId)\n        hasStatus(_bountyId, BountyStatus.CREATED)\n        isBeforeDeadline(_bountyId)\n    {\n        successes[_bountyId].push(Success(false, msg.sender, _description));\n        emit BountyFulfilled(_bountyId, msg.sender, (successes[_bountyId].length - 1), _description);\n    }\n    \n    /**\n    * @dev acceptFulfillment(): accept a given fulfillment\n    * @param _bountyId the index of the bounty\n    * @param _fulfillmentId the index of the fulfillment being accepted\n    */\n    function acceptFulfillment(uint _bountyId, uint _fulfillmentId)\n      public\n      bountyExists(_bountyId)\n      fulfillmentExists(_bountyId, _fulfillmentId)\n      onlyIssuer(_bountyId)\n      hasStatus(_bountyId, BountyStatus.CREATED)\n      fulfillmentNotYetAccepted(_bountyId, _fulfillmentId)\n    {\n         successes[_bountyId][_fulfillmentId].accepted = true;\n        bountyDetails[_bountyId].status = BountyStatus.ACCEPTED;\n        successes[_bountyId][_fulfillmentId].submitter.transfer(bountyDetails[_bountyId].amount);\n        emit FulfillmentAccepted(\n          _bountyId, bountyDetails[_bountyId].issuer,\n          successes[_bountyId][_fulfillmentId].submitter,\n          _fulfillmentId, bountyDetails[_bountyId].amount\n        );\n    }\n    \n    /** @dev cancelBounty(): cancels the bounty and send the funds back to the issuer\n    * @param _bountyId the index of the bounty\n    */\n    function cancelBounty(uint _bountyId)\n      public\n      bountyExists(_bountyId)\n      onlyIssuer(_bountyId)\n      hasStatus(_bountyId, BountyStatus.CREATED)\n    {\n      bountyDetails[_bountyId].status = BountyStatus.CANCELLED;\n      bountyDetails[_bountyId].issuer.transfer(bountyDetails[_bountyId].amount);\n      emit BountyCancelled(_bountyId, msg.sender, bountyDetails[_bountyId].amount);\n    }\n    \n    /**\n    * Modifiers\n    */\n    modifier validateDeadline(uint _newDeadline) {\n        require(_newDeadline > now, \"Deadline should be in the future\");\n        _;\n    }\n    modifier hasValue() {\n        require(msg.value > 0, \"There should be a value\");\n        _;\n    }\n    modifier bountyExists(uint _bountyId){\n        require(_bountyId < bountyDetails.length, \"Bounty already exists\");\n        _;\n    }\n    modifier onlyIssuer(uint _bountyId) {\n      require(msg.sender == bountyDetails[_bountyId].issuer, \"You cannot call this method\");\n      _;\n    }\n    modifier notIssuer(uint _bountyId){\n        require(msg.sender != bountyDetails[_bountyId].issuer, \"Your not the issuer\");\n        _;\n    }\n    modifier hasStatus(uint _bountyId, BountyStatus _exactStatus) {\n        require(bountyDetails[_bountyId].status == _exactStatus, \"There should be a status\");\n        _;\n    }\n    modifier isBeforeDeadline(uint _bountyId) {\n        require(now < bountyDetails[_bountyId].deadline, \"Should be before deadline\");\n        _;\n    }\n    modifier fulfillmentNotYetAccepted(uint _bountyId, uint _fulfillmentId) {\n        require(successes[_bountyId][_fulfillmentId].accepted == false, \"Fulfillment not accepted\");\n        _;\n    }\n    modifier fulfillmentExists(uint _bountyId, uint _fulfillmentId){\n        require(_fulfillmentId < successes[_bountyId].length, \"The fulfillment already exists\");\n        _;\n    }\n    \n    /**\n    * Events\n    */\n    event BountyIssued(uint bounty_id, address issuer, uint amount, string description);\n    event BountyFulfilled(uint bounty_id, address fulfiller, uint fulfillment_id, string description);\n    event FulfillmentAccepted(uint bounty_id, address issuer, address fulfiller, uint indexed fulfillment_id, uint amount);\n    event BountyCancelled(uint indexed bounty_id, address indexed issuer, uint amount);\n}",
  "sourcePath": "/Users/fredrickotim/Documents/programming/ethereum/JobBounty/contracts/JobBounty.sol",
  "compiler": {
    "name": "solc",
    "version": "0.5.0+commit.1d4f565a.Emscripten.clang"
  },
  "schemaVersion": "3.0.5",
  "updatedAt": "2019-06-06T07:57:09.972Z",
  "devdoc": {
    "author": "Otim Fredrick- <fredrickot@gmail.com>",
    "details": "A smart contract which allows someone [a poster] to post work in ETH linked with description And anyone [submitter] can submit a solution as evidence of fulfillment to the work.",
    "methods": {
      "acceptFulfillment(uint256,uint256)": {
        "details": "acceptFulfillment(): accept a given fulfillment",
        "params": {
          "_bountyId": "the index of the bounty",
          "_fulfillmentId": "the index of the fulfillment being accepted"
        }
      },
      "cancelBounty(uint256)": {
        "details": "cancelBounty(): cancels the bounty and send the funds back to the issuer",
        "params": {
          "_bountyId": "the index of the bounty"
        }
      },
      "constructor": {
        "details": "Contructor"
      },
      "fulfillBounty(uint256,string)": {
        "details": "fulfillBounty(): submit a fulfillment for the given bounty",
        "params": {
          "_bountyId": "the index of the bounty to be fufilled",
          "_description": "the ipfs hash which contains evidence of the fufillment"
        }
      },
      "issueBounty(string,uint64)": {
        "details": "issueBounty(): instantiates a new bountyDetail",
        "params": {
          "_deadline": "the unix timestamp after which fulfillments will no longer be accepted",
          "_description": "the description of the bountyDetail"
        }
      }
    },
    "title": "JobBounty"
  },
  "userdoc": {
    "methods": {}
  }
}